:020000040000FA
:1000000058AB0020C997000029AB0100B59700004C
:10001000B5970000B5970000B5970000B5970000B0
:1000200000000000000000000000000055990000E2
:10003000B597000000000000CD980000B5970000C3
:10004000619B0000619B0000619B0000619B0000C0
:10005000619B0000619B0000619B0000619B0000B0
:10006000619B0000619B0000619B0000619B0000A0
:10007000619B0000619B0000619B0000619B000090
:10008000619B0000619B0000619B0000619B000080
:10009000619B0000619B0000619B0000619B000070
:1000A000619B0000619B0000619B0000619B000060
:1000B000619B0000619B0000619B0000619B000050
:1000C000619B0000619B0000619B0000619B000040
:1000D000619B0000619B0000619B0000619B000030
:1000E000619B0000619B0000619B0000619B000020
:1000F000619B0000619B0000619B0000619B000010
:10010000619B0000619B0000619B0000619B0000FF
:10011000619B0000619B0000619B0000619B0000EF
:10012000619B0000619B0000619B0000619B0000DF
:10013000619B0000619B0000619B0000619B0000CF
:10014000619B0000619B0000619B0000619B0000BF
:04015000619B0000AF
:1001580080EA101404F0F01480EA0410604081EA88
:10016800111404F0F01481EA0411614082EA1214B7
:1001780004F0F01482EA0412624083EA131404F0D3
:10018800F01483EA0413634080EA102404F47F44E3
:1001980080EA0420604081EA112404F47F4481EA63
:1001A8000421614082EA122404F47F4482EA042292
:1001B800624083EA132404F47F4483EA04236340FF
:1001C80081EA500404F0553480EA4400614083EA2F
:1001D800520404F0553482EA4402634082EA9004EF
:1001E80004F0333480EA8400624083EA910404F026
:1001F800333481EA84016340704700BF82EA900487
:1002080004F0333480EA8400624083EA910404F005
:10021800333481EA8401634081EA500404F05534A0
:1002280080EA4400614083EA520404F0553482EACB
:100238004402634080EA102404F47F4480EA0420E6
:10024800604081EA112404F47F4481EA042161407A
:1002580082EA122404F47F4482EA0422624083EA98
:10026800132404F47F4483EA0423634080EA1014CF
:1002780004F0F01480EA0410604081EA111404F0DC
:10028800F01481EA0411614082EA121404F0F014B7
:1002980082EA0412624083EA131404F0F01483EA39
:1002A80004136340704700BF2DE9F14F94464FEAAD
:1002B800930B8A68CB6808684968FFF749FF0BF118
:1002C800060E33E083EA134480EA134582EA1347B3
:1002D80046BA96EA3444604000F00F1684EA0634C1
:1002E80020F00F1684EA161054BA94EA01067240F8
:1002F80002F00F1486EA043622F00F1486EA14126C
:100308004CBA6540694001F00F1485EA043521F0C4
:100318000F1485EA14115CBA67407B4003F00F1490
:1003280087EA043723F00F1487EA1413BCE8F000B7
:100338006040694072407B4000F0E03400F01035C6
:1003480000F00F3040EA540040EAC50080EA90040B
:1003580004F0332480EA8400604001F0E03401F0C6
:10036800103501F00F3141EA540141EAC50181EA33
:10037800910404F0332481EA8401614002F0E034FE
:1003880002F0103502F00F3242EA540242EAC50286
:1003980082EA920404F0332482EA8402624003F081
:1003A800E03403F0103503F00F3343EA540343EA13
:1003B800C50383EA930404F0332483EA8403634087
:1003C80081EA324787EA134581EA354690EA06040E
:1003D80084EA034B82EA1B4280EA044484EA054427
:1003E80083EA144A85EA14448BEA044B84EA3744C6
:1003F80081EA0B4181EA164104EA0A00454082EA93
:1004080004082BEA080041408AEA0B0602EA0600C3
:1004180084EA34438AEA3A4603EA060778404540C4
:10042800414088EA38478BEA3B4007EA000985EAF9
:10043800090583EA0709464006EA0906714085EA84
:10044800010005EA3546464006EA314181EA304175
:1004580081EA364606EA304686EA3546344008EAF6
:10046800010886EA01052A4086EA364003405A40D8
:1004780081EA31431F407C4080EA030709EA070903
:1004880088EA0908544088EA020806EA0A0601EAE6
:100498000B018AEA0B0215408AEA3A4210404540AD
:1004A8008BEA3B4003405E404240174079404D4054
:1004B8004E40E443F64386EA18435D4085EA05402A
:1004C80083EA134386EA034183EA384284EA114304
:1004D80083EA04435FEA3343BEF1010E3FF6F2AE0E
:1004E8001ED4BCE8F0006040694072407B4020BCEC
:1004F800FFF784FE28606960AA60EB60BDE8F08FB2
:100508002DE9E0414FF2F00280EA1031114080EA13
:100518000130484041088208C3084FF0000E4FE7F9
:1005280000F0113001F0113102F0113203F01133F3
:1005380040EA410040EA820040EAC3004FF2F0027C
:1005480080EA1031114080EA01304840BDE8E0817E
:100558002DE9F04F02F11C050646074600EB850819
:1005680051F8040B043A46F8040BF9D14FF0010C8A
:10057800FFF7C6FF5FEA302080EA0C001ECF41403B
:100588004A4053405C401EC62000464517D04FEAFB
:100598004C0C1CF4807F18BFACF1E50C2C2DE7D077
:1005A8003C2D06D1FFF7ACFF06CF41404A4006C6B6
:1005B800100006CF41404A4006C61000D8E736E989
:1005C8000F00FFF7C5FD043D86E80F00F7D1BDE831
:1005D800F08F00BF2DE9F14F03F11C0402EB840CEE
:1005E8004FEA930B8A68CB6808684968FFF7B0FD43
:1005F8003CE9F0006040694072407B400BF1060E18
:100608004EE083EA134480EA134582EA134746BA68
:1006180096EA3444604000F00F1684EA063420F06D
:100628000F1684EA161054BA94EA0106724002F0D2
:100638000F1486EA043622F00F1486EA14124CBA14
:100648006540694001F00F1485EA043521F00F1464
:1006580085EA14115CBA67407B4003F00F1487EAFF
:10066800043723F00F1487EA141344BA44404DBAF0
:100678004D4056BA56405FBA5F4087EA174886EA47
:10068800174B84EA17464FEA38488BEA1B4485EA39
:100698001B4788EA1B4580EA3440694072407B402A
:1006A80000F0703400F0803500F00F3040EA44006C
:1006B80040EAD50080EA900404F0332480EA8400FC
:1006C800604001F0703401F0803501F00F3141EAEB
:1006D800440141EAD50181EA910404F0332481EA16
:1006E8008401614002F0703402F0803502F00F326C
:1006F80042EA440242EAD50282EA920404F0332430
:1007080082EA8402624003F0703403F0803503F01B
:100718000F3343EA440343EAD50383EA930404F01E
:10072800332483EA84036340C943DB4381EA00043A
:1007380083EA044686EA020183EA014382EA3345F2
:1007480083EA14435C4084EA00077FEA040A8AEAE1
:10075800024A8AEA010B87EA11488AEA374A80EA9C
:10076800060181EA1A418AEA030A04EA0A004540B6
:1007780088EA040707EA0B0041408AEA0B0608EA00
:10078800060084EA34428AEA3A4602EA06035840F6
:100798004540414087EA37438BEA3B4003EA00097A
:1007A80085EA090582EA0309464006EA0906714016
:1007B80085EA010005EA3546464006EA314181EA04
:1007C800304181EA364606EA304686EA3546344004
:1007D8000F4086EA010508EA050886EA3640024025
:1007E80088EA020881EA314213405C4080EA020349
:1007F80009EA030987EA0907674088EA040806EA5C
:100808000A0601EA0B018AEA0B0425408AEA3A44FF
:10081800204045408BEA3B4B02EA0B02564084EAF3
:100828000B04234059406E40694087EA364080EA0D
:10083800384080EA060380EA104481EA134585EAD5
:10084800344585EA17427D4082EA354180EA054011
:100858003CE9F0006040694072407B40BEF1010E07
:100868003FF6CFAE20BCFFF7C9FC28606960AA60DC
:10087800EB60BDE8F08F00BFFFF76ABE30B44FF001
:10088800000310F8014B11F8015B013A84EA0504F2
:1008980043EA0403F5D1A3F101034FEAD37030BC56
:1008A800704700BF4FF0000310F8012B013943EAED
:1008B8000203F9D1A3F101034FEAD370704700BFD7
:1008C80030B411F8014B12F8015B6C4000F8014B91
:1008D800013BF6D130BC70472DE9F04F90E8F00F9E
:1008E80000F140004FF0040E59E0F0B4826BC36B86
:1008F80004680525242687593C444FEA724787EA4D
:10090800F24787EA92273C4442684FEAF21787EA9F
:10091800B24787EAD2073C4440F8044B032D08BF8E
:100928006FF01B0687593A444FEA734787EAF34743
:1009380087EA93273A4443684FEAF31787EAB347AD
:1009480087EAD3073A4440F8042B87593B444FEAD7
:10095800744787EAF44787EA94273B4444684FEA98
:10096800F41787EAB44787EAD4073B4440F8043BC6
:10097800013DC0D1A0F13C00076A3C444FEA7247F0
:1009880087EAF24787EA92273C4402684FEAF2175F
:1009980087EAB24787EAD2073C44C463F0BC4FF009
:1009A800020288EA781C8CEAF84C0BEBBC1C8AEA39
:1009B800090303EA080383EA0A039C4450F8043B4A
:1009C8009C4451F8043B9C44674444EA050B0BEAF9
:1009D800060B04EA05034BEA030BE34484EAF42319
:1009E80083EA34530BEBB30B87EA771C8CEAF74C9A
:1009F8000AEBBC1C89EA080303EA070383EA090334
:100A08009C4450F8043B9C4451F8043B9C44664485
:100A18004BEA040A0AEA050A0BEA04034AEA030A4B
:100A2800E2448BEAFB2383EA3B530AEBB30A86EAE8
:100A3800761C8CEAF64C09EBBC1C88EA070303EA2F
:100A4800060383EA08039C4450F8043B9C4451F88D
:100A5800043B9C4465444AEA0B0909EA04090AEA8A
:100A68000B0349EA0309E1448AEAFA2383EA3A5381
:100A780009EBB30985EA751C8CEAF54C08EBBC1C3C
:100A880087EA060303EA050383EA07039C4450F850
:100A9800043B9C4451F8043B9C44644449EA0A08DA
:100AA80008EA0B0809EA0A0348EA0308E04489EA65
:100AB800F92383EA395308EBB30884EA741C8CEAF7
:100AC800F44C07EBBC1C86EA050303EA040383EA3B
:100AD80006039C4450F8043B9C4451F8043B9C4456
:100AE800E34448EA090707EA0A0708EA090347EA64
:100AF8000307674488EAF82383EA385307EBB30708
:100B08008BEA7B1C8CEAFB4C06EBBC1C85EA0403D5
:100B180003EA0B0383EA05039C4450F8043B9C4416
:100B280051F8043B9C44E24447EA080606EA0906F1
:100B380007EA080346EA0306664487EAF72383EAD6
:100B4800375306EBB3068AEA7A1C8CEAFA4C05EBB3
:100B5800BC1C84EA0B0303EA0A0383EA04039C44EB
:100B680050F8043B9C4451F8043B9C44E14446EA59
:100B7800070505EA080506EA070345EA030565448B
:100B880086EAF62383EA365305EBB30589EA791C2E
:100B98008CEAF94C04EBBC1C8BEA0A0303EA090350
:100BA80083EA0B039C4450F8043B9C4451F8043BF3
:100BB8009C44E04445EA060404EA070405EA0603FF
:100BC80044EA0304644485EAF52383EA355304EBD5
:100BD800B304013A7FF4E5AEA0F14000BEF1010E86
:100BE8007FF483AEA0F1400C9CE80F00001949196E
:100BF8009219DB19ACE80F009CE80F004044494407
:100C080052445B44ACE80F00BDE8F08F81F000412E
:100C180002E000BF83F0004330B54FEA41044FEAD9
:100C2800430594EA050F08BF90EA020F1FBF54EA74
:100C3800000C55EA020C7FEA645C7FEA655C00F010
:100C4800E2804FEA5454D4EB5555B8BF6D420CDDE1
:100C58002C4480EA020281EA030382EA000083EA64
:100C6800010180EA020281EA0303362D88BF30BD04
:100C780011F0004F4FEA01314FF4801C4CEA11315A
:100C880002D0404261EB410113F0004F4FEA0333B9
:100C98004CEA133302D0524263EB430394EA050F44
:100CA80000F0A780A4F10104D5F1200E0DDB02FAB3
:100CB8000EFC22FA05F2801841F1000103FA0EF247
:100CC800801843FA05F359410EE0A5F120050EF10D
:100CD800200E012A03FA0EFC28BF4CF0020C43FA3E
:100CE80005F3C01851EBE37101F0004507D54FF04B
:100CF800000EDCF1000C7EEB00006EEB0101B1F59B
:100D0800801F1BD3B1F5001F0CD349085FEA3000E0
:100D18004FEA3C0C04F101044FEA445212F5800FEB
:100D280080F09A80BCF1004F08BF5FEA500C50F188
:100D3800000041EB045141EA050130BD5FEA4C0C6B
:100D4800404141EB0101013C28BFB1F5801FE9D2C8
:100D580091F0000F04BF01460020B1FA81F308BFEB
:100D68002033A3F10B03B3F120020CDA0C3208DDB7
:100D780002F1140CC2F10C0201FA0CF021FA02F192
:100D88000CE002F11402D8BFC2F1200C01FA02F102
:100D980020FA0CFCDCBF41EA0C019040E41AA2BF27
:100DA80001EB0451294330BD6FEA04041F3C1CDAEF
:100DB8000C340EDC04F11404C4F1200220FA04F00F
:100DC80001FA02F340EA030021FA04F345EA0301B9
:100DD80030BDC4F10C04C4F1200220FA02F001FA7B
:100DE80004F340EA0300294630BD21FA04F02946FD
:100DF80030BD94F0000F83F4801306BF81F4801196
:100E08000134013D4EE77FEA645C18BF7FEA655C08
:100E180029D094EA050F08BF90EA020F05D054EADA
:100E2800000C04BF1946104630BD91EA030F1EBFDF
:100E38000021002030BD5FEA545C05D140004941E3
:100E480028BF41F0004130BD14F580043CBF01F5D6
:100E5800801130BD01F0004545F0FE4141F47001BC
:100E68004FF0000030BD7FEA645C1ABF1946104697
:100E78007FEA655C1CBF0B46024650EA013406BF98
:100E880052EA033591EA030F41F4002130BD00BF57
:100E980090F0000F04BF0021704730B54FF4806414
:100EA80004F132044FF000054FF0000150E700BF95
:100EB80090F0000F04BF0021704730B54FF48064F4
:100EC80004F1320410F0004548BF40424FF00001E1
:100ED8003EE700BF42004FEAE2014FEA31014FEA24
:100EE80002701FBF12F07F4393F07F4F81F0605173
:100EF800704732F07F4208BF704793F07F4F04BFBE
:100F080041F40021704730B54FF4607401F000459A
:100F180021F000411CE700BF50EA010208BF7047FA
:100F280030B54FF000050AE050EA010208BF7047EB
:100F380030B511F0004502D5404261EB41014FF454
:100F4800806404F132045FEA915C3FF4D8AE4FF05C
:100F580003025FEADC0C18BF03325FEADC0C18BF3F
:100F6800033202EBDC02C2F1200300FA03FC20FA90
:100F780002F001FA03FE40EA0E0021FA02F11444DD
:100F8800BDE600BF70B54FF0FF0C4CF4E06C1CEAF6
:100F980011541DBF1CEA135594EA0C0F95EA0C0F67
:100FA80000F0DEF82C4481EA030621EA4C5123EADA
:100FB8004C5350EA013518BF52EA033541F4801109
:100FC80043F4801338D0A0FB02CE4FF00005E1FBBC
:100FD80002E506F00042E0FB03E54FF00006E1FB06
:100FE80003569CF0000F18BF4EF0010EA4F1FF0449
:100FF800B6F5007F64F5407404D25FEA4E0E6D4189
:1010080046EB060642EAC62141EA55514FEAC52099
:1010180040EA5E504FEACE2EB4F1FD0C88BFBCF515
:10102800E06F1ED8BEF1004F08BF5FEA500E50F1C6
:10103800000041EB045170BD06F0004646EA01018C
:1010480040EA020081EA0301B4EB5C04C2BFD4EBBE
:101058000C0541EA045170BD41F480114FF0000EB7
:10106800013C00F3AB8014F1360FDEBF002001F025
:10107800004170BDC4F10004203C35DA0C341BDC9F
:1010880004F11404C4F1200500FA05F320FA04F071
:1010980001FA05F240EA020001F0004221F00041A5
:1010A80010EBD37021FA04F642EB06015EEA430E18
:1010B80008BF20EAD37070BDC4F10C04C4F1200548
:1010C80000FA04F320FA05F001FA04F240EA0200FB
:1010D80001F0004110EBD37041F100015EEA430ECC
:1010E80008BF20EAD37070BDC4F1200500FA05F2EC
:1010F8004EEA020E20FA04F301FA05F243EA02036B
:1011080021FA04F001F0004121FA04F220EA020079
:1011180000EBD3705EEA430E08BF20EAD37070BDBF
:1011280094F0000F0FD101F00046400041EB01019F
:1011380011F4801F08BF013CF7D041EA060195F081
:10114800000F18BF704703F00046520043EB03033B
:1011580013F4801F08BF013DF7D043EA0603704728
:1011680094EA0C0F0CEA135518BF95EA0C0F0CD033
:1011780050EA410618BF52EA4306D1D181EA030179
:1011880001F000414FF0000070BD50EA410606BF73
:101198001046194652EA430619D094EA0C0F02D1B8
:1011A80050EA013613D195EA0C0F05D152EA0336FD
:1011B8001CBF104619460AD181EA030101F000411B
:1011C80041F0FE4141F470014FF0000070BD41F064
:1011D800FE4141F4780170BD70B54FF0FF0C4CF43E
:1011E800E06C1CEA11541DBF1CEA135594EA0C0F5D
:1011F80095EA0C0F00F0A7F8A4EB050481EA030EAA
:1012080052EA03354FEA013100F088804FEA033390
:101218004FF0805545EA131343EA12634FEA02225E
:1012280045EA111545EA10654FEA00260EF000411F
:101238009D4208BF964244F1FD0404F5407402D271
:101248005B084FEA3202B61A65EB03055B084FEA02
:1012580032024FF480104FF4002CB6EB020E75EBFF
:10126800030E22BFB61A754640EA0C005B084FEA27
:101278003202B6EB020E75EB030E22BFB61A7546A4
:1012880040EA5C005B084FEA3202B6EB020E75EBEF
:10129800030E22BFB61A754640EA9C005B084FEA67
:1012A8003202B6EB020E75EB030E22BFB61A754674
:1012B80040EADC0055EA060E18D04FEA051545EA63
:1012C80016754FEA06164FEAC30343EA52734FEA0C
:1012D800C2025FEA1C1CC0D111F4801F0BD141EA85
:1012E80000014FF000004FF0004CB6E711F4801FEA
:1012F80004BF01430020B4F1FD0C88BFBCF5E06FCA
:101308003FF6AFAEB5EB030C04BFB6EB020C5FEAD9
:10131800500C50F1000041EB045170BD0EF0004E2E
:101328004EEA113114EB5C04C2BFD4EB0C0541EA60
:10133800045170BD41F480114FF0000E013C90E65D
:1013480045EA060E8DE60CEA135594EA0C0F08BF21
:1013580095EA0C0F3FF43BAF94EA0C0F0AD150EA20
:1013680001347FF434AF95EA0C0F7FF425AF1046B3
:1013780019462CE795EA0C0F06D152EA03353FF4DB
:10138800FDAE1046194622E750EA410618BF52EA58
:1013980043067FF4C5AE50EA41047FF40DAF52EA2C
:1013A80043057FF4EBAE12E74FF0FF3C06E000BFC9
:1013B8004FF0010C02E000BF4FF0010C4DF804CDD6
:1013C8004FEA410C7FEA6C5C4FEA430C18BF7FEA96
:1013D8006C5C1BD001B050EA410C0CBF52EA430CC4
:1013E80091EA030F02BF90EA020F0020704710F144
:1013F800000F91EA030F58BF994208BF90422CBFD3
:10140800D8176FEAE37040F0010070474FEA410CCB
:101418007FEA6C5C02D150EA013C07D14FEA430CE9
:101428007FEA6C5CD6D152EA033CD3D05DF8040B5A
:10143800704700BF8446104662468C46194663468C
:1014480000E000BF01B5FFF7B7FF002848BF10F163
:10145800000F01BD4DF808EDFFF7F4FF0CBF0120A8
:1014680000205DF808FB00BF4DF808EDFFF7EAFF24
:1014780034BF012000205DF808FB00BF4DF808EDDF
:10148800FFF7E0FF94BF012000205DF808FB00BFD4
:101498004DF808EDFFF7CEFF94BF012000205DF85E
:1014A80008FB00BF4DF808EDFFF7C4FF34BF01206B
:1014B80000205DF808FB00BF4FEA410C7FEA6C5C36
:1014C80002D150EA013C0AD14FEA430C7FEA6C5C36
:1014D80002D152EA033C02D14FF0000070474FF0AE
:1014E800010070474FEA410212F5001215D211D5DA
:1014F8006FF47873B3EB625212D94FEAC12343F009
:10150800004343EA505311F0004F23FA02F018BF8A
:10151800404270474FF00000704750EA013005D153
:1015280011F0004008BF6FF0004070474FF0000016
:10153800704700BF7BB972B90029BEBF00204FF0C9
:10154800004106E008BF00281CBF6FF000414FF0C3
:10155800FF3000F057B8ADF1080C6DE904CE002952
:1015680009DB002B1ADB00F061F8DDF804E0DDE9A7
:10157800022304B07047404261EB4101002B1BDBA2
:1015880000F054F8DDF804E0DDE9022304B040423D
:1015980061EB4101524263EB43037047524263EBF4
:1015A800430300F043F8DDF804E0DDE9022304B06A
:1015B800404261EB41017047524263EB430300F044
:1015C80035F8DDF804E0DDE9022304B0524263EBAC
:1015D8004303704753B94AB9002908BF00281CBF04
:1015E8004FF0FF314FF0FF3000F00CB8ADF1080CB0
:1015F8006DE904CE00F01AF8DDF804E0DDE9022315
:1016080004B07047704700BF10F8012B11F8013B78
:10161800012A28BF9A42F7D0D01A7047034613F818
:10162800012B002AFBD1181A013870472DE9F04721
:1016380086468C460846089E154674461946002B71
:1016480040F0C1808542B2FA82F245D94AB1C2F16E
:10165800200300FA02FC954094402EFA03F343EA73
:101668000C0C4FEA154EA8B2230CBCFBFEF80EFB7F
:1016780018CC08FB00F943EA0C43994528D9EB1824
:1016880008F1FF3704D2994502D9A8F102072B4483
:10169800A3EB0903A4B2B3FBFEFC0EFB1C330CFB4B
:1016A80000F044EA0344A04214D92C190CF1FF338A
:1016B80004D2A04202D9ACF102032C44241A43EA12
:1016C80007401EB1D440002334607360BDE8F08742
:1016D8004746DDE76346F1E792BB431B01214FEA2A
:1016E800154EAFB2200CB3FBFEFC0EFB1C330CFBFB
:1016F80007F840EA0343984561D9EB180CF1FF302D
:1017080004D2984502D9ACF102002B44A3EB08039C
:10171800A4B2B3FBFEFC0EFB1C330CFB07F744EA38
:101728000344A7424DD92C190CF1FF3304D2A74228
:1017380002D9ACF102032C44E41B43EA0040C0E7A1
:10174800C2F120039540944020FA03F12EFA03F3E6
:101758004FEA154E9040AFB20343B1FBFEFC0EFBBF
:101768001C10190C0CFB07F841EA0041884522D9E6
:1017780069180CF1FF3004D2884502D9ACF1020097
:101788002944A1EB08019BB2B1FBFEFC0EFB1C1126
:101798000CFB07F743EA01439F420ED9EB180CF103
:1017A800FF3104D29F4202D9ACF102012B44DB1B6A
:1017B80041EA004193E76046E3E76146F7E76046A0
:1017C800A4E76346B8E7834206D916B9002108465C
:1017D8007CE7C6E900E0F9E7B3FA83F78FB98342FB
:1017E80001D3724508D8BEEB020460EB0303012065
:1017F8009C461EB9002169E73846FAE7C6E9004C5D
:10180800F8E7C7F1200CBB400EFA07F522FA0CF4F2
:101818002EFA0CF1BA401C4320FA0CF3B8404FEAF8
:10182800144901431FFA84FEB3FBF9F809FB183089
:101838000B0C08FB0EFA43EA00439A4540D9E3181B
:1018480008F1FF3004D29A4502D9A8F102002344D6
:10185800A3EB0A0389B2B3FBF9F809FB183308FBB9
:101868000EFE41EA03418E452CD9611808F1FF3379
:1018780004D28E4502D9A8F10203214443EA00406C
:10188800A1EB0E01A0FB02984145CE46434602D388
:1018980006D14D4504D20138B9EB020E68EB0403BA
:1018A800002EA7D0B5EB0E0261EB030101FA0CFC88
:1018B80022FA07F3F9404CEA0303C6E9003199E735
:1018C8004046C5E74346D9E707B50B4B002293EDE1
:1018D800000B002351EC100B8DED000BFFF7BAFD48
:1018E8009DED000B08B19FED020B03B05DF804FB02
:1018F800000000000000F03F380F0020000000004A
:101908002DE9F04F0C468BB016461F468346FFF76D
:10191800DBFF20468DED000BFFF7CAFA0446384678
:101928000D46FFF7C5FA00226D4BFFF72BFB024669
:101938000B4620462946FFF76DF9044630460D460A
:10194800FFF7B6FA0022674BFFF71CFB02460B466F
:1019580020462946FFF740FC0022634BFFF75CF95D
:101968000446BDF960000D46FFF7A2FA00225F4B5E
:10197800FFF708FBCDE902011698FFF799FA002254
:1019880006460F4620462946574BFFF743F90246BD
:101998000B4630463946FFF7F5FA0022544BFFF75D
:1019A800F1FACDE90401BDF95C00FFF781FA0022E4
:1019B800504BFFF7E7FADDF854804F4B4FEAE872D7
:1019C8000F464FEA480103FB02110646A8FB030332
:1019D8001944FFF7A9FA02460B4630463946FFF785
:1019E800D1FA3BA3D3E90023CDE9060120462946D5
:1019F800FFF712F904460D4602460B46FFF7C2FAF6
:101A080022462B46FFF7BEFA22462B46FFF7BAFAC4
:101A18004FF0050A0024CDE90801334D5846FFF779
:101A280047FA064614980F46FFF742FA0022804606
:101A38008946204629462C4BFFF7ECF802460B4610
:101A480040464946FFF79EFA0022294BFFF79AFACB
:101A580000222A4BFFF7E0F8DDE90423FFF7DCF862
:101A6800DDE90623FFF78EFA0022254BFFF78AFAF5
:101A780019A3D3E90023FFF7AFFBDDE90023FFF744
:101A880081FA02460B4630463946FFF7A5FBDDE9E9
:101A98000823FFF7C1F841EC100B14F09BFA14F07F
:101AA80099FA0BA3D3E9002351EC100BFFF7B2F816
:101AB800DDE90223FFF7AEF80AF1FF3A1AF0FF0A50
:101AC80004460D46AAD145EC104B0BB0BDE8F08F8B
:101AD8006666666666127140000000205FA00242DA
:101AE8000000703F0000F03E000039400000503F09
:101AF8000000B03D0000103F00E40B540000F03F30
:101B08000000103D000000002DE9F04F8246174606
:101B18001C4600259FB00391387810B9284600F07C
:101B2800A9BD252809D00399D0470028C0F2A2856D
:101B38007B1C01350593059FEEE71822002110A8AC
:101B48001DF0C0F97B78252B00F0BC800023984657
:101B58009E469C461846791C0E4611F8012B2B2AE6
:101B680000F0E38000F2DA80202A00F0E180232AE6
:101B780000F0E1802BB19DF8483043F040038DF828
:101B88004830B8F1000F05D09DF8483043F02003E5
:101B98008DF84830BEF1000F05D09DF8483043F06D
:101BA80010038DF84830BCF1000F05D09DF848307F
:101BB80043F008038DF8483028B19DF8483043F0C9
:101BC80004038DF848309DF8483003F04401442957
:101BD80003D16FF386138DF848309DF848302A2AD0
:101BE80043F080030E968DF8483040F0A9809DF8A8
:101BF800493043F001038DF84930731C1A782E2AB6
:101C08000CBF012100219DF8492061F341028DF8A4
:101C180049200CD15A1C0E925A782A2A40F0A080EA
:101C28009DF84920023342F004028DF849201A78C1
:101C38006C2A00F0C18000F2A380682A00F0A98015
:101C48006A2A00F0C2804C2A00F0C78013F8012BE2
:101C5800782A05938DF84B2000F209816D2A00F24D
:101C6800C980692A00F20381572A00F2E280412ADA
:101C780004D0A2F14503022B00F2F98004219DF85B
:101C88004A3002F0DF02A2F1410961F30203D9F1FF
:101C980000029DF8491042EB090262F3C7110A06D7
:101CA8008DF84A308DF84910CBB200F11F8103F04E
:101CB8007802182A40F009816FF3C6038DF849307D
:101CC8000023F8E08DF84B30BB1C05939DF8493094
:101CD8009DF84A20DE0702F0070040F1098154F818
:101CE800041B0029049108DA9DF8481041F004010A
:101CF8008DF84810049949420491590740F1008130
:101D080054F8046B002E80F2FF809DF849306FF381
:101D180041038DF849304FF0FF36F5E02D2A0DD0FC
:101D2800302A7FF427AF012316E74FF0010C13E7A1
:101D38004FF0010E10E74FF001080DE701200BE707
:101D48000EA804F01FFB0E9BB3423FF457AF9DF85B
:101D580048201390C00F60F341028DF848204DE7EA
:101D68000EA804F00FFB9DF848301490C3F340020E
:101D780042EAD07262F341038DF848300E9B56E771
:101D8800742A26D07A2A7FF461AF06219DF849206B
:101D98000CE05A78682A9DF8492006D1012161F3A0
:101DA800C6028DF84920023350E7022161F3C602CA
:101DB8008DF84920013349E75A786C2A9DF8492063
:101DC80001D10421EBE70321F0E705219DF8492023
:101DD800ECE707219DF84920E8E7BDF8482022F400
:101DE800F04222F0020242F4804242F00202ADF8D0
:101DF8004820DFE76E3AD3B201229A4040F282438C
:101E08001A429DF8493039D112F0240F61D1D10717
:101E18002DD503219DF84A2003F07803A3F140084B
:101E280061F30202D8F100038DF84A2043EB08035E
:101E380041E00120A2F15801C9B200FA01F111F400
:101E4800624F7FF41BAF40F6010319429DF84930F9
:101E58001AD111F4043F0AD09DF84A2060F3020217
:101E680003F07803402B8DF84A207FF429AF9DF8C2
:101E7800483043F001038DF8483021E702219DF8EE
:101E88004A2061F30202EBE702209DF84A1003F0B2
:101E9800780360F30201402B8DF84A1002BF9DF8C9
:101EA800481041F001018DF84810632A7FF408AF0B
:101EB800003B18BF01239DF84820C2F340010B43A3
:101EC80063F341028DF8482000E713F0380FCED1B4
:101ED800F6E603219DF84A2013F0780F61F3020219
:101EE80014BF012300238DF84A20E4E70123E2E729
:101EF8009DF948100029ACBF4FF0FF311399FBE65C
:101F08009E077FF508AF149E00230428CDE91333FC
:101F18009DF8493007D1990705D49DF94910002942
:101F2800ACBF06260D2602F00702012AC3F3C3033D
:101F380032D1DA1E042A04D8DFE802F02045452011
:101F480020002268012B4FEAE271CDE910211BD154
:101F58009DF94020D117CDE9102104349DF848207F
:101F6800069292074FD03A465046059B039916F0C1
:101F7800E1FF0028C0F27E830544DCE554F8042B19
:101F8800D117CDE91021E9E7022BE6D111B242F3CE
:101F9800C032CDE91012E0E7022A24D1DA1E042A61
:101FA80004D8DFE802F0181010181800012B4FF0C1
:101FB800000154F8042B14D0022BCDE91021CDD107
:101FC80092B21092CAE7073424F00704F4E8020139
:101FD800CDE91001C2E754F8042B109200221192A7
:101FE800BCE7D2B2CDE7042A08D1073424F00704AD
:101FF800D4E900010834CDE91001AFE7032AADD1D7
:1020080054F8042BDDE79DF84B80B8F1780F3FF6C4
:1020180092ADB8F1570F5CD8B8F1250F00F0A48045
:10202800B8F1240F7FF687ADB8F1410F04D0A8F1BD
:102038004503022B3FF67FADDDE91023002BC0F2EC
:102048004D810699080700F14C81C1F300194FEA48
:102058004919C3F30A51C3F31303002940F044811B
:1020680052EA030014BF4FF0010C4FF0000CD802E5
:1020780040EA5250D702CDE90C70B8F1460F47EA52
:10208800010740EAE17008BF4FF06608384300F0E6
:10209800B781BCF1000F10D01B0343EA125317039A
:1020A8003A4618464FF0000C002880F25681BCF1E1
:1020B800000F40F05981CDE90C730D9BA1F2FE3B56
:1020C80043F000430D930021DDE90C230F46052062
:1020D80060E1A8F15802202A3FF62DAD01A151F880
:1020E80022F000BFB72200003F1B00003F1B00008A
:1020F8003F1B00003F1B00003F1B00003F1B000070
:102108003F1B00003F1B0000412000003F1B000058
:1021180063220000772200004120000041200000D7
:10212800412000003F1B0000772200003F1B0000F9
:102138003F1B00003F1B00003F1B0000BD220000AA
:10214800B7220000072200003F1B00003F1B0000D1
:10215800812100003F1B0000B72200003F1B000048
:102168003F1B0000B722000040460399D0470028D3
:10217800C0F280820135DEE4002E109F3BDB314641
:1021880038461CF0E1FE002F3FF4D5AC4FF00009B3
:102198003E18F31B9DF84A2012F01001069100F03A
:1021A8005E82023312F04002DDF84C80089218BFBC
:1021B800149A434418BF9B18049ACDF81C80002A2F
:1021C80040F36882D31A9DF8482004935007C2F35D
:1021D800800B00F15F82510640F14F82B9F1000F88
:1021E80007D048460399D0470028C0F24382D94611
:1021F8000135302242E23846FFF710FAC6E7109858
:10220800002800F027820DF175030093002117AB19
:1022180012AA04F0CDF84FF000090746BDF84A307D
:1022280003F0EF0343F4F04343F01003ADF84A30F2
:10223800002E0CDB9DF848200DF17503DB1B6FF3B6
:1022480086129E428DF8482001D9F31A1393002F65
:102258003FF471AC0DF175066DE0109B4FF000096D
:102268008DF85C300DF15D06012317AF92E7069BF0
:102278001F0754BFC3F300194FF02B09DDE91023E2
:1022880058BF4FEA4919002B06DA4FF02D09524280
:1022980063EB4303CDE91023DDE910010DF175036C
:1022A800009312AA17AB04F083F80746C0E74FF073
:1022B8000009F1E7109A072B3FF63DACDFE803F081
:1022C8000C04060C08080C0C157034E4158032E474
:1022D800EB17C2E900532EE415602CE44FF02D09EA
:1022E800B7E64FF02B09B4E640F2FF70814231D1D6
:1022F800A34908F101085FFA88F811F80810134398
:1023080001F003011ED101290BBF492369234E2186
:102318006E210CBF462266228DF85C309DF848304D
:102328008DF85D106FF386138DF85E208DF84830B8
:102338000DF15F0617AFF31BB9F1000F3FF42AAF99
:10234800013327E7012915BF6E234E23612141215F
:102358001A46E1E74FF0000C89E692184FF0010C9D
:1023680001F1FF3140419FE6CDE90C20A5E6520876
:1023780042EAC3725B08B3F1333F59460BF1010BD4
:10238800F5D201F1020B012100FB03FCA2FB0023A3
:10239800013F63441BF1020FE9DB09B1CDE90C23CE
:1023A800DDE90C32BBF1000F2DDCCBF10401A1F10A
:1023B80020000BF11C0B02FA0BFB22FA00F0CA40BA
:1023C800CB40079208F0DF0243EA0B03472A43EAAF
:1023D80000037BD1F91C01DBBE422ADAA8F102080E
:1023E800002E5FFA88F87ADD9DF84820013E9206B3
:1023F80075D4B6F1000B18BF4FF0010B721C26E024
:102408004FF0000B5FE6023342F100020CA80BF11B
:10241800FF3B0137CDE90C3216F05DFDDDE90C32EA
:10242800DB185241002A0BF1FF3BF9DACDE90C32F7
:10243800B6E79DF84820F61B90064DD4B6F1000B80
:1024480018BF4FF0010BF2194FF066084AD4102A52
:10245800A8BF10229FED487B10208DED0E7B0B90BE
:10246800DDE90E01002A3FD1079A1B1842EB010152
:10247800B1F1805F47D2CDE90C31069BB8F1660F08
:1024880003F0200240F0C680002F47DC30238DF88F
:102498005C30002A76D1002E40F3BD812E238DF8C2
:1024A8005D3087B17B42B342A8BF3346002B1393FC
:1024B800A6EB0306D4BF002301239DF84A2063F34B
:1024C80045128DF84A200DF15E0340E0B8F1660F21
:1024D8004FF0000BB7D091E74FF0000BB3E74FF088
:1024E800000B8BE70022B5E7400840EAC1704908B5
:1024F800CDE90E010EA8CDE9082316F0ECFC089AE8
:10250800099B013AACE75B0843EAC1730CA8490888
:10251800CDE90C31013716F0DEFCAEE717AB0B99AD
:1025280000290BDD0BA90CA8CDE9063216F0EBFC4F
:10253800069B013F079A03F8010BF0D11397AAB93C
:10254800002E40F366812E2103F8011B0027002E80
:1025580021DD0B9A002A1EDD0BA90CA8069316F0A4
:10256800D2FC069B013E03F8010BF0E72E2203F88C
:10257800012BEBE7AFF3008000000000000000082B
:10258800924102002E238DF85D30002F9BD0002E43
:1025980088DC0DF15E03BBF1000F4FD114961E4687
:1025A80008F0DF03452B24D1002FBABF7F422D232B
:1025B8002B23632FC8BF64227370C4BFB7FBF2F329
:1025C80002FB13774FF00A02C8BF03F13001B7FBD3
:1025D800F2F3C8BFB17003F1300102FB137386F840
:1025E800008003F13003D4BF0236033631707370B4
:1025F8000236139B002B2BDC149B002BD4BF00232B
:1026080001239DF84A2063F3861200238DF84A209F
:1026180033708FE60BA90CA8069216F074FC069A84
:1026280030288DF85C0018BF07F1FF3712B9002E6B
:1026380040F3F1802E238DF85D3044E71E4616F8EE
:10264800012C013B302AF9D02E2A08BF1E46A7E7E5
:102658000123D6E7714E81460523771F9AE51107B6
:1026680048BF01339EE5104609920399D0470028D8
:10267800099A05DA1FB0BDE8F08F2022DDF810B006
:10268800594600290BF1FF3BEDDC049BCDF810B057
:102698002B445D1AB9F1000F05D048460399D0477D
:1026A8000028E7DB0135089B002B77D09DF94930DE
:1026B800002B28DB3B46DFF8689118789B4619F811
:1026C8000020013352073FD49DF84A30EF1B98068B
:1026D8005F4407D44246002A08F1FF383BDC079BD9
:1026E8003B449F1A9BF800002E280AD10399D04733
:1026F8000028BFDBB8F1000F07F1010731DC0BF14F
:10270800010B5D4638E0B94699F80000C8467028C4
:1027180009F1010913D1EF1B149D47443D44EB1BFC
:10272800002B33DC334642465046039916F002FC30
:1027380000289FDB3844049E0546064464E003995C
:10274800D0470028E0DA95E706930399D047002898
:10275800069BB2DA8EE730200399D0470028B9DA11
:1027680088E730200399D04708F1FF38C0E703997C
:10277800D0470028FFF67EAF2878A84619F8003021
:1027880001355907F3D4A7EB0B07C5E730200399A8
:10279800D0470028FFF66EAF0137C0E79DF84A30F2
:1027A800DA0601D41B0706D530200399D047002844
:1027B800FFF660AF0135069B3BB103999DF84B00CE
:1027C800D0470028FFF656AF0135A84406E0302070
:1027D8000399D0470028FFF64DAF0135A8EB050354
:1027E800002BF4DC33463A465046039916F0A2FB18
:1027F8000028FFF63FAF28449DE720200399D047E3
:102808000028FFF637AF0135731B002BF5DCFFF707
:1028180092B91746BFE60DF15D03BCE6D417020076
:1028280093410200024B186908B19869013070475A
:10283800B8230020024B186908B15869013870475D
:10284800B82300204B1E59425941014B197070475B
:10285800BD33002070B506460D4600293DD0204BFB
:102868001B78D3B34FF0FF334FF0FF321D4815F0FC
:1028780004FC1D490B6953B3FFF7D4FFB04202466D
:1028880025D8FFF7D7FFB04221D38B6833449B1A72
:102898004CF6C942B3FBF2F102FB11331422534345
:1028A800294603F1400000F0F9FF044650B92B68AF
:1028B800B3420FD1284615F0C8FB6B8A834218BF74
:1028C8006FF00404074815F0DAFB204670BD6FF07E
:1028D8000104F7E76FF00404F4E76FF01504F4E778
:1028E800A73300201C0B0020B823002010B5144883
:1028F8000B46026802F00702022A03D90321114A93
:1029080017F0C7F9104C11484FF0FF324FF0FF3362
:1029180015F0B3FB206818B10AF010FC00232360FF
:102928000A4815F0ACFB00230121094A1370094A33
:102938001370094A1170094A1370094A136010BDCF
:10294800740A0020F0010200D8230020F40A0020B5
:10295800BD330020BC330020A4330020A633002060
:10296800B42300204FF0FF3370B54FF0FF32134807
:1029780015F083FB124B1C78E4B1FFF753FF0646B2
:10298800FFF758FF05460F4B9C690C4815F077FB7D
:1029980000220D4BDA7003221A700C4A5E6012781E
:1029A8009D605A700A4ADC6012789A70094A126867
:1029B8001A6170BD25462646E7E700BF1C0B0020BC
:1029C800A7330020B8230020A8330020A633002016
:1029D800A5330020B4230020F0B585B01F46044677
:1029E8000D461646FFF7BEFF14230293064B3246E8
:1029F8000193BDF828302946009320463B4619F03C
:102A0800F3FC05B0F0BD00BFA83300204FF0FF3342
:102A180010B54FF0FF32074815F02FFB064B1C6826
:102A28001CB1204618F0DEFD0446024815F027FBCD
:102A3800204610BDF40A0020D823002038B5144DD4
:102A480004464FF0FF3213484FF0FF3315F015FBE3
:102A5800286808B10AF072FB204618F0C3FD286008
:102A68000C4815F00CFB00230B4A0C4813700C4A59
:102A780013600C4A1370036803F00703022B05D98F
:102A8800BDE838400321084A17F0FAB838BD00BF3E
:102A9800D8230020F40A0020A6330020740A00205E
:102AA800B4230020A433002006020200142213B528
:102AB800094C0020E3685343042240330DEB020124
:102AC800019300F02DFF20B920222146042000F0B8
:102AD80027FF02B010BD00BFB823002008B50A4B7D
:102AE8001822002118461CF0EDF94FF4403340F845
:102AF800043C01230549C36040F8081CA0F1080202
:102B0800BDE80840FFF7D2BFC0230020524C46332F
:102B180010B5114B86B01B78DBB1FFF777FF044681
:102B2800B8B1FFF71FFF1822002168461CF0CAF948
:102B38000A4B694601930A4B204602931423ADF8C9
:102B48000C300DF085F9204606B0BDE810400AF0BB
:102B5800F5BA06B010BD00BFBC3300201CF8010058
:102B6800A83300200322034B1870034B1A70FFF799
:102B7800CFBF00BFA5330020A633002038B54FF0E3
:102B8800FF324FF0FF330546224815F076FA224B04
:102B98001B7843B91F4815F072FA0220FFF7E2FFCD
:102BA8006FF0120038BDFFF745FE0446194815F0CE
:102BB80066FA1A4B1B782BB90520FFF7D3FF6FF085
:102BC8000C00EFE7FFF722FF28B90520FFF7CAFF3F
:102BD8006FF07F00E6E70AF0B1FAAC4210481149FD
:102BE800114A07D8002303600B701370FFF790FF9A
:102BF8000020D7E70D4B04601D6000230C481370BC
:102C0800037001200870FFF783FF0A4811F05CFF8A
:102C1800EEE700BF1C0B0020A7330020BD330020C7
:102C2800B4230020A6330020A5330020B0230020C1
:102C3800A43300206C0B00202DE9F04F424E8DB0DC
:102C48004FF0FF334FF0FF32404811F077FF3378F1
:102C5800012BF5D1FFF7DAFE054618B90520FFF775
:102C680081FFEDE74FF0FF3339484FF0FF3215F0A1
:102C780004FAFFF7D7FD374BDFF8E4801C6801340E
:102C8800844238BF0446FFF7D5FDD8F80030984293
:102C980028BF184607462E4815F0F1F91FB3A7427A
:102CA80021D3DFF8C0A04FF0140B0DF104095A46E8
:102CB800002148461CF006F99AF80030FBB10023C1
:102CC8003370C8F800303378012B08D19AF80030F7
:102CD8002BB902223270204A1370FFF719FF2846D9
:102CE8000AF02CFAACE700231B4A2846C8F8003043
:102CF800337013700AF022FAFFF70AFFA0E749467B
:102D08002046FFF7A7FD014618B10220FFF72AFF6A
:102D1800D9E718220DEB02001CF0D4F80F4B284617
:102D280006A9CDE90739ADF824B00DF091F808B13E
:102D38000520EBE74FF4A4700021013415F0A1F948
:102D4800A742B0D2BFE700BFA63300206C0B00201B
:102D58001C0B0020B0230020A5330020B8F7010089
:102D6800B4230020A43300202DE9F0418EB04FF0A9
:102D7800FF324FF0FF33824811F0E0FE4FF420306D
:102D8800002115F07EF900257E4E1422002104A8AA
:102D98001CF098F87C4BCDE902550693FF238DF87B
:102DA80020308DF802308DF803304FF40043ADF831
:102DB8000630764B8DF801501B788DF80450012BA6
:102DC8008DF8055005D14FF42030002115F059F940
:102DD800DBE7337813B94FF4F020F6E701F01EF87B
:102DE8000028F8D015F0A6F907460028F3D04FF0D0
:102DF800FF324FF0FF33664815F03FF902A800F0A4
:102E0800B3FE044630B1624815F039F90320FFF7E4
:102E1800A9FEE0E7029B0DF1010105939DF8213021
:102E280003A843F020038DF8213001F0DFF840B902
:102E38003C46039B07939DF8213043F008038DF827
:102E480021300DF1060001F03FFC50B93C46BDF8B9
:102E58000630ADF81A309DF8213043F004038DF8A0
:102E680021300DF105030DF1030201A90DF1020056
:102E780001F02CFA002839D19DF804309DF805207E
:102E880093B39DF802308DF818309DF8213043F047
:102E980001038DF821304AB19DF803308DF81930BF
:102EA8009DF8213043F002038DF82130384815F0A1
:102EB800E6F84FF014080021424609A81CF002F871
:102EC80033787BB14FF0FF324FF0FF33314815F0C4
:102ED800D4F84CF6C843304C22699A4211D92D488F
:102EE80015F0CDF8022007E0002AD5D1284815F0C2
:102EF800C6F8002CDDD10420FFF734FE4FF4F010A3
:102F080063E7636904A8049315F09FF8E768ADF8D0
:102F1800220008FB07F740374246384604A900F06C
:102F2800FFFC0028DBD14246384609A900F0B6FC70
:102F38000028D4D1424609A904A81BF08CFF002818
:102F4800CDD14CF6C942E3680133B3FBF2F102FB81
:102F58001133E360236901332361636901336361DA
:102F6800FFF7A4FD04460B4815F089F8002CB9D1E9
:102F78000A4B1C70FFF7F6FCFFF7CAFDBEE700BF5F
:102F8800840B0020A7330020FFFF0080A633002019
:102F9800080B00201C0B0020B8230020A5330020BC
:102FA80001290CBF01220022024B1A7001D1FFF740
:102FB800AFBD7047BC3300200B4639B105480268E5
:102FC800520705D00121044A16F063BEFFF736BD4B
:102FD800704700BF740A002010020200F8B5BDF85F
:102FE80018501C46002D40F0A480A2B19BB1072CBC
:102FF800137809D95568013B042B00F29680DFE865
:1030080003F00D1222707900042C02D9D2F8015075
:10301800F1E7012CEFD06FF01200F8BDFFF7A2FC2A
:10302800FFF776FD0DE02846FFF7A8FD034640B1FF
:103038004148026812F0060F03D002213F4A16F0F9
:1030480028FE2046E9E73E4E3378012B03D10620BF
:10305800FFF788FDF5E73B4B1B78002B3FD03A4F35
:103068004FF0FF3339484FF0FF3215F006F8FFF7FD
:10307800E1FB3B6813B1984228BF1846344BD3F89C
:1030880010C0BCF1000F08D1304814F0F8FF00233D
:103098003B6033702F4A1370C2E79969A942F3D293
:1030A800A84228BF28468142EED2421A624528BF6C
:1030B80062464CF6C945986811441044B0FBF5FEC9
:1030C80005FB1E009860ACEB020018619961FFF7E0
:1030D800EDFC05461D4814F0D2FF002DD7D0022084
:1030E800B6E701221C4B1A700023174A1360144AD2
:1030F8001370CFE7284600F0A5FD08B10320A7E725
:103108004FF0FF334FF0FF32104814F0B6FF104B6A
:10311800DD610C4B1B780BB1FFF7C8FC0B4814F0B2
:10312800AEFF00220B4B1A707AE70620FFF71AFD54
:1031380071E76FF0060070E7740A002024020200AD
:10314800A6330020A7330020B42300201C0B002046
:10315800B8230020A5330020A4330020F0B589B09F
:10316800694E02AF336803F00703022B04D9032129
:103178003046664A16F084FD654D3C1D0FCD0FC4E0
:103188002B68236013F00CFE70B16FF004043368F1
:103198005B0705D0012123465E4A5B4816F079FD9E
:1031A80020461C37BD46F0BD08F09EFD04460028A9
:1031B800EDD10223012200935749584B381D09F0DD
:1031C80025FC04460028E2D1336803F00703022BEC
:1031D80013D96D4688B002AA514B5361514B936184
:1031E8004FF400739383504B42F8103F4FF4E6516D
:1031F8000346454804F062F9AD4600F035FA30B3AD
:103208000420FFF7AFFC00237B6000F0D5FAD0B9AB
:10321800464D4FF0FF324FF0FF33454814F02DFF75
:1032280020222946042000F039FB424EA0B1FFF7C6
:1032380055FCB0FA80F305465B093D48337014F03D
:103248001EFF002D3FD00120FFF78CFC3BE000F073
:1032580037FA0028D4D1D6E70422B91800F01EFBAB
:103268000028E4D12A68344B9A42E0D16B68B3F560
:10327800403FDCD14CF6C842A9689142D7D8EB68E8
:103288009342D4D84CF6C9402A698242CFD8D5F89F
:1032980014C0BCF1000FCAD01144B1FBF0FE00FB12
:1032A8001E118B42C3D1A9690A4401329445BED18B
:1032B800142253437A6840339A42B8D101231C48F8
:1032C800337014F0DCFE00F015FC10B10320FFF79A
:1032D80049FC00F0FDFD10B10420FFF743FC00F0AD
:1032E800B9FF10B10420FFF73DFC01F049F910B116
:1032F8000420FFF737FCFFF735FBFFF709FC0F4801
:1033080011F0E2FB4CE700BF740A00203B02020008
:1033180000F701004D02020088F7010078F701006C
:10332800690202007B02020003000001B8230020AA
:103338001C0B0020A7330020524C4633840B00207E
:1033480038B50446C8B14FF0FF334FF0FF320C4890
:1033580014F093FE0B4B1B7863B10B4D0FCD0FC4CC
:1033680095E80F0084E80F000024054814F087FE54
:10337800204638BD6FF01204F7E76FF01504F7E741
:103388001C0B0020A7330020B823002038B50446C2
:1033980020B34FF0FF334FF0FF32124814F06DFEA8
:1033A800114B1B782BB90F4814F069FE6FF012000F
:1033B80038BD0E4B1B692BB90A4814F060FE6FF03C
:1033C8000100F5E7FFF736FA0546064814F057FE00
:1033D80021462846BDE83840FFF73CBA6FF0150093
:1033E800E6E700BF1C0B0020A7330020B82300200D
:1033F80010B5044650B1FFF7B5FA054B03F11402B6
:1034080053F8041B934244F8041BF9D110BD00BFC4
:10341800A833002010B50446B8B14FF0FF330B486D
:103428004FF0FF3214F029FE094B08481B68003B97
:1034380018BF01232370074B1B786370064B1B785A
:10344800A370BDE8104014F01ABE10BDF40A0020A5
:10345800D8230020BD330020BC33002070B50446BB
:1034680015460E4611B100F0D9FC307015B114F0B4
:1034780061FE287094B100F0D1FC90B14FF0FF329A
:103488004FF0FF33084814F0F8FD204600F06CFBBD
:103498000446054814F0F3FD204670BD6FF015048E
:1034A800FAE76FF01204F7E7080B002038B5054675
:1034B80000F0B4FC002835D04FF0FF324FF0FF3356
:1034C8001A4814F0DAFD284600F0BCFB04461748F9
:1034D80014F0D5FD24B10320FFF744FB204638BD86
:1034E8004FF0FF334FF0FF32114814F0C6FD114B77
:1034F800DD61114B1B7843B90D4814F0C0FD002263
:103508000E4B1A70FFF704FBE8E7FFF7CFFA054602
:10351800074814F0B4FD002DF1D00220FFF722FB7C
:103528002C46DBE76FF01204D8E700BF080B002039
:103538001C0B0020B8230020A7330020A53300204F
:1035480070B50D4616460446C0B1B9B112B100F0C7
:1035580063FD307000F060FD98B14FF0FF324FF01E
:10356800FF33094814F089FD2046294600F03EFD46
:103578000446054814F083FD204670BD6FF015041D
:10358800FAE76FF01204F7E7080B002038B50D468C
:103598000446B0B111B101F00FF9287001F00CF92F
:1035A80090B14FF0FF324FF0FF33094814F065FD3A
:1035B800204601F089F80446054814F060FD2046CD
:1035C80038BD6FF01504FAE76FF01204F7E700BF93
:1035D800080B00202DE9F041DDF818800D4616464D
:1035E8001F46044600B3F9B1F2B1EBB1B8F1000FD0
:1035F80003D000F077FF88F8000000F073FFB0B147
:103608004FF0FF324FF0FF330A4814F036FD2046E2
:103618003B463246294600F059FE0446054814F058
:103628002EFD2046BDE8F0816FF01504F9E76FF034
:103638001204F6E7080B0020012210B50024064BFF
:103648001A70064B1C60064B1C70064B1C70FFF76B
:103658005FFA204610BD00BFA4330020B423002029
:10366800A6330020A533002038B51248124D286033
:103678001AF0A0FA0346C8B11021286814F007FD13
:1036880014210446286814F002FD15210443286813
:1036980014F0FDFC16210443286814F0F8FC2043BC
:1036A8000CBF01230023054A137038BD6FF01200C8
:1036B800F9E700BF9CF00100DC230020BE330020A6
:1036C80010B5184B1B784BB3174C1021206814F019
:1036D800ECFC142014F0F4FC1621206814F0E5FC2E
:1036E800142014F0EDFC1421206814F0DEFC1420E2
:1036F80014F0E6FC1521206814F0D7FC3C2014F0E7
:10370800DFFC0A48036803F00703022B01D80020F6
:1037180010BD0321064A16F0B3FAF8E76FF012005D
:10372800F6E700BFBE330020DC230020FC090020A0
:10373800B7020200012310B588B0CDE90002CDE937
:10374800021202AACDE906230593064BCDF810D044
:103758001868836804491C6804AA06ABA04708B027
:1037680010BD00BFE423002044F80100024B0021F3
:10377800186814F0B5BC00BFE0230020024B0121FB
:10378800186814F0ADBC00BFE02300201FB501236A
:103798000393074BCDE90001CDF808D0186883687A
:1037A80004491C6802AA0023A04704B010BD00BF4A
:1037B800E423002044F8010070B59F23002588B059
:1037C800CDE902352E482F4B2F4C18602F4BCDE9F1
:1037D8000555ADF81050ADF81C5023601AF0EAF901
:1037E8002B4E30B900236FF012043370204608B016
:1037F80070BD20681AF0DEF90028F3D0206802694D
:103808008168136823F4807313600B684FF42022D7
:1038180008219847044608B13570E7E7FFF7A6FF87
:103828000A2205A902A8FFF785FF0446FFF7A6FFAD
:10383800002CF1D10523ADF80440ADF80030FFF7B6
:1038480095FF0222684601A9FFF774FF0446FFF7B7
:1038580095FF002CE0D19DF805305B0603D4347049
:103868006FF00404C2E701230A483370036803F0C9
:103878000703022BBAD90321074A16F001FAB5E764
:1038880074F10100E4230020E02300209CF00100F3
:10389800BF3300203C0A0020D80202002DE9F04383
:1038A8001E4B06461B7888461546FBB09BB31AB1DB
:1038B80089B34FF0000925B9002420467BB0BDE844
:1038C800F083F02D4FF0F0024FF0000101A82F46D1
:1038D80028BFF0271BF0F6FA03238DF80030330CCD
:1038E8008DF8013073BAADF80230FFF73FFF684634
:1038F8003A1D3DA9FFF71EFF0446FFF73FFF002CC6
:10390800DBD108EB09003A463EA91BF0B4FAB944EA
:10391800ED1B3E44CFE76FF01504CEE7BF33002020
:103928002DE9F047234B06461B7888461546BEB05E
:10393800002B3BD032B1002938D04FF0000A4FF0AD
:10394800060925B9002420463EB0BDE8F087F02DD1
:103958002F468DF8049028BFF027FFF707FF0121B5
:1039680001A8FFF713FF0446FFF708FF002CEAD170
:1039780002238DF80430330C3A4608EB0A018DF81F
:10398800053002A873BAADF806301BF074FAFFF7D9
:10399800EDFE391D01A8FFF7F9FE0446FFF7EEFE1C
:1039A800002CD0D1BA44ED1B3E44CAE76FF0150491
:1039B800C9E700BFBF330020014B1878704700BF2C
:1039C800BF33002010B50368A3F5FD624B2A2DD83C
:1039D80041684A1E0B2A29D8C268172A26D80269C4
:1039E8003B2A23D842693B2A20D8114A02290A4493
:1039F80012F8012C10D199070ED1642493FBF4F12D
:103A080004FB113181B94FF4C87193FBF1F401FB48
:103A18001433002B08BF1D228068002806DD904261
:103A2800CCBF0020012010BD1D22F5E70020FAE7D9
:103A3800160302001FB500238DF807302B4B0446F0
:103A48001B78002B4FD00723294802AA00680DEBEA
:103A5800030114F054FB002843D19DF80830C3F348
:103A6800021202EB820203F00F0303EB42036361CD
:103A78009DF80930C3F3021202EB820203F00F0330
:103A880003EB420323619DF80A30C3F3011202EBF2
:103A9800820203F00F0303EB4203E3609DF80C304E
:103AA800C3F3011202EB820203F00F0303EB42039C
:103AB800A3609DF80D30C3F3001202EB820203F0FD
:103AC8000F0303EB420363609DF80E301A0902EB03
:103AD800820203F00F0303EB4203DBB203F5FA6340
:103AE800236004B010BD6FF01200FAE7C033002065
:103AF800E823002073B528230026164C16488DF8B5
:103B080006308DF8076020601AF054F8134D28B974
:103B18006FF012042870204602B070BD206801239F
:103B28000DF107020DF1060114F0E9FA044608B197
:103B38002E70F0E701230A482B70036803F007038F
:103B4800022BE8D99DF807300321064A16F0A1F8A0
:103B5800E1E700BFE823002050F10100C033002056
:103B6800780A0020EC02020070B5044686B00028EE
:103B780059D06846FFF75EFF0546002850D16846D1
:103B8800FFF720FF002851D0DDE9002102298CBF72
:103B9800CB1E01F10903022998BF013A002AB8BFD8
:103BA8006FF4C7764FF4C871BABF961996FBF1F156
:103BB80092FBF1F11F4E029806FB012299267343EE
:103BC80005260233B3FBF6F30138034440F26D10C7
:103BD80000FB0233642003EB9203B2FBF0F29B1A62
:103BE80000221548C1FB0032144915485B1842F100
:103BF800FF31A3FB003200FB01224FF461600399FF
:103C080081FB00105B184FF03C0142EB0002049866
:103C1800C0FB013205995B1842EBE17232B92360AF
:103C2800284606B070BD6FF01505F9E76FF021055D
:103C3800F6E700BF70FEFFFFB13A02009405F5FFFA
:103C4800805101002DE9F0476C4B07461B7886B080
:103C5800002B00F0CF806A4E4FF00008B0FBF6F65C
:103C680068480023301848F10001674AFDF762FCF4
:103C7800654B06F52F2101F66C2103FB101148F660
:103C8800AC6340F2B45EB1FBF3F3B1FBFEF20B445C
:103C98009B1A5E4A40F26D1CB1FBF2F29B1AB3FB11
:103CA800FCF44FF4C87202FB004548F69462B3FB7B
:103CB800F2F2B3FBFEF30A44D21A99230CFB142246
:103CC80002EB82010231B1FBF3FA052003FB0AF390
:103CD8000233B3FBF0F30132D41A40F2F95399429C
:103CE8004FF03C01B7FBF1F34FF00A0901FB1373E6
:103CF800DBB2B3FBF9F209FB123343EA02134FF4C8
:103D080061628DF80530B7FBF2F302FB1373B3FB66
:103D1800F1F3DBB2B3FBF9F109FB113343EA011309
:103D280037498DF80630B7FBF1F301FB1373B3FB8A
:103D3800F2F3DBB2B3FBF9F209FB123394BF0AF1D9
:103D4800030AAAF1090A43EA0213301D8DF8073065
:103D580048F10001E4B2072200238DF80480FDF742
:103D6800E9FBB4FBF9F309FB1344013244EA0314F9
:103D78005FFA8AF38DF80820B3FBF9F2BAF1020F63
:103D880098BF013509FB1233303543EA0213EDB20F
:103D98008DF80A30B5FBF9F309FB135545EA03150D
:103DA8001B4B8DF80940186801AB03930823049353
:103DB80002238DF80B508DF814309DF8143082686A
:103DC80043F002038DF8143094685223012203A9AA
:103DD800A047044650B90F48036803F00703022BB5
:103DE80004D903213B460C4A15F053FF204606B080
:103DF800BDE8F0876FF01204F8E700BFC033002079
:103E0800805101006CFA0A00B13A0200B03A02008F
:103E1800E8230020780A002005030200014B1878E7
:103E2800704700BFC033002010B51F2A14468CB05D
:103E38001ED88DF810000DF111001BF01CF804AA13
:103E4800019202220C4B013418680C4B02941B7827
:103E58008DF80C209DF80C20816842F002028DF844
:103E68000C208C68012201A9A04740B20CB010BDFB
:103E78006FF01500FAE700BF0C2400209D09002010
:103E880010B588B00DF107030293012303930023B3
:103E98008DF8103003238DF81C300B4B8DF807007C
:103EA80018680A4BCDE905121B789DF81C2081681B
:103EB80042F002028DF81C208C68022202A9A04759
:103EC80040B208B010BD00BF0C2400209D0900209E
:103ED800F0B58DB01422002102A81AF0F3FF1322C6
:103EE80000210DF11D001AF0EDFF06238DF81C309E
:103EF8004FF485733248ADF80430324B186019F02E
:103F080059FE314E20B930706FF012000DB0F0BD7F
:103F180001252E4C2022002120461AF0D3FF2C4BDD
:103F28002046E3602B4B657023612B4B63612B4B61
:103F3800636014F09DFB20B100236FF00400337020
:103F4800E4E7204614F0C3FB0028F5D14FF484734E
:103F58008DF80C002246294602A8ADF80A308DF8E3
:103F68000F5001F03DFB0028E6D121461C4814F013
:103F780003FC0028E0D102272246294607A88DF82D
:103F88001E7001F02DFB0028D6D12246294601A833
:103F980014F027FC0028CFD12146384614F0BBFB8B
:103FA8000028C9D10F483570036803F00703BB42E6
:103FB80001D80020AAE703210B4A15F061FEF8E7B3
:103FC80050F101000C240020C1330020EC23002014
:103FD800893E0000313E0000578101009D09002004
:103FE8003D030200F80900203003020010B5084C18
:103FF800247854B148B141B1064A14F0CFFB0028E7
:1040080014BF6FF00400002010BD6FF01500FBE72F
:10401800C1330020EC230020014B1878704700BF03
:10402800C13300201FB50D4B8DF80000186802231E
:104038008DF80110CDF804D002938DF80C309DF85E
:104048000C30826843F002038DF80C3094685723D3
:10405800012201A9A04704B010BD00BF1024002010
:1040680007B58DF8070005480A4601230DF1070139
:10407800006814F0D0F803B05DF804FB10240020A9
:10408800F8B50369044640F8231001335A4202F098
:10409800030203F0030358BF53420361D0E900321F
:1040A80013448268856B1344C268C5EB45159B1899
:1040B80048BF033315EBA30548BF1F359A106D1190
:1040C8008563AD1A1AF046F9D4E905630F469E4296
:1040D80085EAE571D4E90C23A1EBE571C2EBC202D4
:1040E8000BDC521848BF0732D2109B1A03EBD3736C
:1040F800226302EB6302E2620DE0521848BF073206
:10410800B5424FEAE20209DB9B1A03EBD37302EBD9
:1041180063032263E362C4E90556F8BDE16A8E428F
:10412800E3DD4FF47A7CA0FB0C010CFB0711D4E90A
:10413800087CC00B57EA0C0E40EA41404FEAD131E7
:1041480002D1C4E90801D0E7C71B61EB0C0CC82FEA
:104158007CF1000EC9DB40F6B93E77457CF1000CD6
:1041680004DBC4E908010021A162BEE7C3EBC30375
:104178009B1948BF0733DB1063639B1A03EBD373A8
:1041880002EB6303E3624EF660232263B3FBF7F3AB
:104198000A225343E26BC4E90801C4E90556A76241
:1041A80022B103EB8203052293FBF2F3B3F59B7F65
:1041B800E36348DB40F69702934246DC0A2293FB0E
:1041C800F2F3DBB2012584F85C30A36D84F85E500D
:1041D8002B44072BA365A0DDD4E912036FF000423E
:1041E8004FF00041C01AC4E91212D4E91436C4E9E8
:1041F800141200229042A2658FDD9B1B93428CDD36
:10420800226C002A89DD616C002986DD4FF47A76FC
:1042180080FB0101A0FB060783FB022306FB01715B
:10422800FDF788F90A4BC0EB001090FBF3F06630FD
:104238006428A8BF64204628B8BF462084F85F5089
:1042480084F85D0069E71E23BCE7DC23BAE700BFFA
:1042580018FCFFFF002373B517488DF80730174B7C
:10426800186019F0A7FC164E30B900236FF012043D
:104278003370204602B070BDFF200DF10701FFF733
:10428800EFFE05460028F0D19DF80730152BECD13C
:1042980013F06FFF044608B13570EAE701230948B7
:1042A8003370036803F00703022BE2D90321064A9F
:1042B80015F0E6FCDDE700BF50F1010010240020F6
:1042C800C2330020580A0020630302002DE9F04F92
:1042D8008346894692469846A3B01AF03BF8019166
:1042E80000217E4B06461B788DF81A10002B00F033
:1042F800F280BBF1000F00F0EE80B9F1000F00F082
:10430800EA80BAF1000F00F0E680B8F1000F00F083
:10431800E28060220AA81AF0D5FD4FF4FA754FF032
:1043280000426FF000431595CDE91C23CDE91E230B
:1043380013F01FFF0446002842D14FF47A77A6FBFA
:1043480007320199DB0B07FB012243EA424313F5CD
:10435800FA534FEAD23203930DF11A0142F10003E6
:104368000493FFF77DFE284613F0F3FE19F0F2FFE1
:104378004FF47A73A0FB030307FB0131039AC30BC5
:1043880043EA41439342049B4FEAD13199414FF0AC
:10439800000619DB9DF884308BF800309DF88530D5
:1043A8008AF800309DF8863089F800309DF887300B
:1043B80088F80030BDF88630B34208BF6FF03C047F
:1043C800204623B0BDE8F08F0DF11B0104208DF8C5
:1043D8001B608DF81C60FFF743FE062007A9FFF756
:1043E8003FFE9DF81B309DF81C209B1A03F01F030D
:1043F8000293029AF3B2934201D30A20B4E74FF032
:10440800070337488DF81B3000680C2307AA0DF105
:104418001B0113F000FF0028EFD19DF820509DF8F4
:104428001F302D0245EA03459DF821309DF82320D1
:104438001D43C5F3110301939DF82230120242EA8D
:1044480003429DF824309DF825101A439DF8263024
:104458009DF81C001B0243EA01439DF82710C2F394
:1044680011020B439DF81D10C3F31105090241EA1F
:1044780000419DF81E0005920143C1F311010AA8ED
:10448800FFF7FEFD01990AA8FFF7FAFD1A98059AA9
:104498001B99C0EB80108018C1EB811148BF3F30D9
:1044A800491948BF3F3189116B1A80111B911C991A
:1044B800121A8A421D99C8BF1C928A42B8BF1D921F
:1044C8001E9A1A9093421F9AC8BF1E939342B8BF70
:1044D8001F9301368DE76FF0150471E7C233002092
:1044E80010240020014B1878704700BFC233002009
:1044F80030B5124B89B040BAADF8000018680023F7
:1045080002228DF8103001ABCDE9053207230C46A5
:10451800CDF808D003928DF81C309DF81C308168C6
:1045280013438DF81C308D683A2302A9A84718B99F
:10453800BDF804305BBA238009B030BD40240020A8
:104548001FB50E4B40BAADF800001868042302935B
:10455800022349BAADF80210CDF804D08DF80C301A
:104568009DF80C30826843F002038DF80C30946893
:104578003A23012201A9A04704B010BD402400201D
:1045880038B53F483F4B186019F014FB3E4D20B931
:104598006FF012042870204638BD002140F63E20F6
:1045A80019F04BFE13F043FF041E02DA00232B70B0
:1045B800F1E7002013F093FF041EF7DB334942F2C2
:1045C800104013F043FE3249044642F20C4013F007
:1045D8003DFE3049044342F20E4013F037FE2E49A7
:1045E800044342F2124013F031FE2C49044342F2D4
:1045F8002E4013F04BFE2A49044342F22F4013F099
:1046080045FE2849044342F2244013F01FFE264980
:10461800044342F2264013F019FE2449044342F2AF
:104628002C4013F013FE2249044342F2284013F0B1
:104638000DFE2049044342F22A4013F007FE1E49AA
:10464800044342F2814013F021FE1C49044342F224
:10465800824013F01BFE044304D000236FF00404CF
:104668002B7098E7012316482B70036803F00703A3
:10467800022B90D90321134A15F002FB8BE700BFE8
:1046880050F1010040240020C333002014240020EE
:10469800182400201C24002020240020242400208A
:1046A80026240020282400202C2400203024002048
:1046B80034240020382400203C2400203E240020FC
:1046C800600A0020820302002DE9F043364B0546BC
:1046D8001B7889B0002B63D0002861D00DF11E0330
:1046E80007AA0DF11A0106A813F08BFE00284BDB70
:1046F8002E4CBDF91A10B4F91020BDF9180000F0BD
:1047080061F8B4F9123059EC108BBDF91820BDF9D5
:104718001E10BDF91C000093BDF91A3000F088F88E
:104728004046494657EC106BFCF7DCFE804639469C
:104738003046FCF7D7FEB4F92A3041460493B4F961
:1047480028300393636A0293236A0193E369009311
:10475800D4E90523FDF7D4F857EC106B00220023A9
:1047680030463946FCF794FE0022114B78B13046AA
:104778003946FCF707FC00220E4BFCF74DFAFCF714
:10478800B1FE00B22880002009B0BDE8F0833046B1
:104798003946FCF7F7FB0022064BFCF73BFAEEE73D
:1047A8006FF01500F0E700BFC33300201424002089
:1047B800000059400000E03F014B1878704700BFE7
:1047C800C33300202DE9F04116468846FCF770FBFC
:1047D8000022144BFCF700FD04460D463046FCF75A
:1047E80067FB0022104BFCF7CDFB22462B46FCF75B
:1047F800C9FB064640460F46FCF75AFB02460B46E5
:1048080030463946FCF708FA02460B462046294648
:10481800FCF7E2FC0022054BFCF7B4FB41EC100B63
:10482800BDE8F081000028400000503F0000204112
:10483800014401EBD1712DE9F04148101646984624
:10484800FCF736FB00221A4BFCF7C6FC0446304640
:104858000D46FCF72DFB0022154BFCF7BDFC064668
:10486800BDF918000F46FCF723FB0022114BFCF79B
:1048780089FB02460B4630463946FCF783FB064661
:1048880040460F46FCF714FB02460B4630463946B5
:10489800FCF7C2F902460B4620462946FCF79CFC69
:1048A8000022054BFCF76EFB41EC100BBDE8F081D4
:1048B800000028400000503F0000204113B5642448
:1048C80092FBF4F304FB132424B2002CB8BF644217
:1048D800CDE900420A46024915F015FC02B010BDA8
:1048E800A103020037B50C464B8A054601934B7C61
:1048F80000934B680A68294915F005FC637CDB07BF
:1049080033D52846227A264915F0FDFB637C9807A3
:1049180030D52846627A234915F0F5FB637C5907A0
:104928002DD52846B4F90A201F49FFF7C7FF637C35
:104938001A0729D52846E2681C4915F0E4FB637C70
:10494800DB0626D52846227C194915F0DCFB637C5A
:10495800184A13F0200F184B284618BF1A46174953
:1049680003B0BDE8304015F0CEBB2846144915F019
:10497800CAFBCBE72846134915F0C5FBCEE7284606
:10498800114915F0C0FBD2E72846104915F0BBFBCA
:10499800D5E728460E4915F0B6FBD8E7C303020051
:1049A800FD03020026040200420402006104020022
:1049B80088040200BE030200BB030200AA0402002E
:1049C80010040200320402004C04020071040200C8
:1049D8009704020070B588B014220021044603A889
:1049E8001AF070FA002303A8ADF808308DF80A30E1
:1049F800FEF7FEFC02A8FEF70DFD1F491F4A9DF8B1
:104A08000A609DF80800002E0CBF15460D469DF85B
:104A180009300095002B0CBF13460B46002818BF21
:104A28000A462046164915F06EFB9DF80830E3B992
:104A38001449204615F067FB9DF80D302046032BDE
:104A480096BF114A114A52F823209DF80E30062BC2
:104A580096BF0F490D4B51F82330079900910D4926
:104A680015F051FB002008B070BD9DF80930002BEF
:104A7800E2D10949DDE700BFBB030200BE03020023
:104A8800C0040200F804020074F80100B80402002F
:104A980058F801006F0502002C05020073B5164690
:104AA800002205460C46019209B10B783BB928460D
:104AB8000B4915F036FB6FF0150002B070BD2046AB
:104AC80001A912F05BFD019A0346107828B122462D
:104AD8002846044915F025FBEDE73360EDE700BFF4
:104AE8009D050200B50502000023F0B5022987B034
:104AF80005461446CDE904338DF80E308DF80F3095
:104B08000BD0294915F0FFFA2846284915F0FBFA79
:104B18006FF01504204607B0F0BD616804AAFFF7DE
:104B2800BDFF04460028F5D1049F3846FEF7BEFCB9
:104B3800044628B102461E49284615F0F2FAE9E76C
:104B48000DF10F020DF10E0105A8FEF787FC0646D0
:104B58001849284615F0D7FA3A462846164915F056
:104B6800D2FADEB915499DF80E00154A9DF80F30A6
:104B7800059E002B0CBF13460B460096002818BF55
:104B88000A4628460F4915F0BEFA9DF80F30002B4B
:104B9800C0D028460C4915F0B6FABBE7324628467D
:104BA8000A4915F0B0FAF0E7D1050200F105020054
:104BB800130602003306020047060200BB03020088
:104BC800BE03020060060200C20602009006020050
:104BD80010B5044613F0AEFA48B92046044915F05A
:104BE80092FA2046BDE81040024915F08CBA10BD73
:104BF800050702005F07020010B504462B4915F0AF
:104C080082FA20462A4915F07EFA2046294915F0ED
:104C18007AFA2046284915F076FA2046274915F0F1
:104C280072FA2046264915F06EFA2046254915F0F5
:104C38006AFA2046244915F066FA2046234915F0F9
:104C480062FA2046224915F05EFA2046214915F0FD
:104C58005AFA2046204915F056FA20461F4915F001
:104C680052FA20461E4915F04EFA20461D4915F005
:104C78004AFA20461C4915F046FA20461B4915F009
:104C880042FA20461A4915F03EFA2046194915F00D
:104C98003AFA2046184915F036FA2046174915F011
:104CA80032FA2046FFF794FF002010BD9607020055
:104CB800AB070200BF070200000802002408020038
:104CC8005608020089080200BE080200F308020024
:104CD800260902005D09020091090200B1090200DB
:104CE800D9090200050A0200180A0200250A020072
:104CF800480A02006B0A02007B0A02009A0A0200B4
:104D080030B593B00446202200210AA81AF0DAF838
:104D1800142200210DEB02001AF0D4F8FEF74CFE25
:104D2800204B214A2149002818BF1A46204615F071
:104D3800EAF90AA8FEF704FB054605A8FEF758FBA2
:104D48003DB12A4620461A4915F0EBF9002013B068
:104D580030BD0E9A0ABB2046164915F0D4F9DDE994
:104D68000A232046144915F0CEF9109B20460293D9
:104D78000F9B124901930E9B0093DDE90C2315F05C
:104D8800C2F9119B204600930D49DDE9062315F071
:104D9800BAF92046FFF71CFFD8E72046094915F065
:104DA800B2F9DCE7BB030200BE030200C40A02003A
:104DB800D50A0200FB0A0200550B0200790B02001B
:104DC800BC0B0200380B02008B1C10B50A460446C7
:104DD80007D1064915F097F92046BDE81040FFF7BE
:104DE800F7BE0349BDE8104015F09BB9EE0B020071
:104DF800250C020030B593B00446202200210AA8F1
:104E08001AF060F8142200210DEB02001AF05AF88B
:104E180000230DF10F020DF10E0104A88DF80E30DC
:104E28008DF80F300493FEF719FB054623499DF8CA
:104E38000E00234A9DF80F30002B0CBF13460B467B
:104E4800002818BF0A4620461E4915F05CF92DBBFC
:104E58002046049A1C4915F056F90AA8FEF770FA7C
:104E680028B9119A02BB2046184915F04CF905A833
:104E7800FEF78CFA0146E0B99DF825300F4A13F089
:104E8800200F0F4B18BF1346204600931049DDE949
:104E9800052315F038F9002013B030BD2A46204606
:104EA8000C4915F03EF9D8E720460B4915F02BF9C7
:104EB800DDE72046FFF788FFEDE700BFBB030200F0
:104EC800BE030200530C02006F0C0200A50C020086
:104ED800F30C0200860C0200CF0C020030B589B03A
:104EE80004461422002103A819F0ECFF00230DF159
:104EF80006020DF1070102A88DF8063002938DF81D
:104F08000730FEF71DFB05469DF806101C4A1D4B91
:104F18002046002918BF1A461B4915F0F4F805BBAE
:104F28002046029A194915F0EEF820469DF8072008
:104F3800174915F0E8F803A8FEF728FA0146D8B98A
:104F48002046039A134915F0DEF89DF81D301B071B
:104F58000DD52046069A104915F0D5F8002009B05D
:104F680030BD2A4620460D4915F0DBF8E3E7204618
:104F78000B4915F0C8F8F1E72046FFF725FFEDE7E4
:104F8800BE030200BB030200250D0200380D02001B
:104F9800540D02009A0D0200B10D0200780D0200B6
:104FA800CD0D020030B587B014220446002101A8B7
:104FB80019F088FF00230DF101010DF102008DF8B1
:104FC8000130ADF80230FEF7E1FA05469DF8011010
:104FD8001A4A1B4B2046002918BF1A46194915F0D2
:104FE80092F8E5B92046BDF902201749FFF766FC9B
:104FF80001A8FEF7CBF90146E0B92046019A13490A
:1050080015F081F89DF815305B070ED52046BDF9DF
:105018000E200F49FFF752FC002007B030BD2A468A
:1050280020460C4915F07DF8E2E720460A4915F0BC
:105038006AF8F1E72046FFF7C7FEEDE7BE03020076
:10504800BB030200F90D02000E0E02009A0D0200C9
:10505800420E02001E0E0200520E0200142230B54B
:105068008BB0044600210DEB020019F02BFF002342
:1050780020463E498DF80F308DF810308DF81130EC
:105088008DF812308DF8133015F03DF80DF10F033F
:1050980000930DF113020DF1110304A90DF1120093
:1050A800FEF798FA05469DF80F10314A314B204615
:1050B800002918BF1A46304915F025F8002D41D1AE
:1050C80020462E4915F01FF89DF8103083B320466E
:1050D8009DF812202A4915F016F89DF8113063B38F
:1050E80020469DF81320274915F00DF805A8FEF76E
:1050F8004DF90146002835D1059A2046224915F078
:1051080002F89DF82530DA0722D520469DF81C20A4
:105118001E4914F0F8FF9DF825309B071DD5204641
:105128009DF81D201A4914F0EEFF00200BB030BD89
:105138002046184914F0E7FFCFE72046164914F037
:10514800E2FFD3E72A462046144914F0EAFFCDE7E8
:105158002046134914F0D7FFDDE72046114914F023
:10516800D2FFE2E72046FFF72FFEDEE7800E0200BF
:10517800BE030200BB030200D20E0200E70E0200CB
:10518800290F0200640F02009A0D0200B40F0200FA
:1051980001100200460F0200780F02008E0F020075
:1051A800D10F02001510020070B50E4686B00446F5
:1051B80015460021142201A819F084FE022E08D0F9
:1051C80020460F4914F0ADFF6FF01505284606B0CC
:1051D80070BD69686A462046FFF760FC05460028EE
:1051E800F4D101A9009812F04EFF014618B12046EB
:1051F800FFF7EAFDEAE7204601A9FFF773FBE5E7B9
:105208003D10020010B586B014220021044601A802
:1052180019F058FE01A8FEF7EBF89DF8053033B9F0
:1052280020460C4914F06FFF002006B010BDFEF7B1
:1052380003FA01A8FEF7DCF89DF805302046032B99
:1052480096BF054A054A52F823200549059B14F0E4
:105258005AFFE9E75D10020074F80100B804020083
:105268007B100200F0B51746202291B00E46044686
:1052780000210DEB020019F025FE1422002103A8DD
:1052880019F020FE0023022EADF804308DF8063008
:10529800029308D92046354914F043FF6FF01505ED
:1052A800284611B0F0BD08A8FEF74AF8054628B10F
:1052B80002462F49204614F034FFF1E7022E07D1A9
:1052C8002046796802AAFFF7E9FB18B10546E7E727
:1052D8000E9B029303A8FEF78BF801A8FEF79AF835
:1052E8009DF8043023B92349204614F00CFFD7E772
:1052F8009DF805302BB92049204614F004FF1F49BA
:10530800F2E79DF80D30013B012B01D81C49EBE772
:105318000C9B3BB920461B4914F0F5FE2046FFF7CD
:1053280057FCBDE7029E059BB34201D81649DBE74F
:10533800304612F0AAFE024608B11449BAE703A89B
:10534800FEF756F832462046114914F0DCFE9DF867
:105358000D302046032B96BF0E4A0F4A52F82320E1
:105368000E49079B14F0CFFE9AE700BFAA1002006F
:10537800C8100200F1100200231102005F110200A0
:10538800B1110200CE110200F91102003E12020012
:105398006712020074F80100B804020096120200B5
:1053A8002DE9F04F95B004461422002107A819F002
:1053B80089FD002120220CA8ADF818108DF81A10CC
:1053C80019F080FD07A8FEF713F806A8FEF722F8E3
:1053D8000CA8FDF7B5FF4849484A9DF81A600746EA
:1053E800002E0CBF15460D469DF818009DF8193083
:1053F8000095002B0CBF13460B46002818BF0A4621
:105408003F49204614F07FFE9DF81D302046032BAF
:1054180096BF3C4A3C4A52F823209DF81E30374D2F
:10542800062B96BF3949384B51F823300B99324E29
:1054380003910A99029109990191089900913449B7
:1054480014F061FEFEF7EAFC00280CBFA846B0463F
:1054580012F070FE00280CBFA946B146FEF7DCFD2D
:1054680000280CBFAA46B246FFF73CF800280CBF3C
:10547800AB46B346FFF7A0F900280CBF2B463346CE
:105488000593FEF799FA002818BF3546059B424652
:10549800CDE901B320464B461E490395CDF800A03F
:1054A80014F031FE27BB109A9AB920461A4914F015
:1054B8002AFE139ABAB92046184914F024FE12F0AD
:1054C80039FE10B92046FFF783FB002015B0BDE870
:1054D800F08F119B204601930F9B114900930E9B5F
:1054E80014F011FEE5E70F49204614F00CFEE6E73C
:1054F8003A460D49F8E700BFBB030200BE030200AD
:10550800C004020074F80100B804020058F8010051
:10551800BF1202001213020069130200B30C02004A
:1055280097130200C9130200D50A0200142270B5AD
:105538008AB0044600210DEB020019F0C3FC0023D9
:1055480005A8ADF810308DF81230FDF751FF04A80A
:10555800FDF760FF1B491C4A9DF812609DF810007A
:10556800002E0CBF15460D469DF811300095002BF6
:105578000CBF13460B46002818BF0A46134920469D
:1055880014F0C1FD9DF815302046032B96BF104A34
:10559800104A52F823209DF81630062B96BF0E4964
:1055A8000C4B51F8233009990391089902910799F6
:1055B800019106990091094914F0A5FD00200AB04F
:1055C80070BD00BFBB030200BE030200C00402009E
:1055D80074F80100B804020058F80100BF12020074
:1055E8002DE9F043C64D85B02B880446ADF8003050
:1055F80000231046884616468DF8023012F0CAFF7E
:10560800002840F0E482002C00F0E182134669464D
:105618000322212012F0FCFF002840F0C981142346
:1056280003FB0848444500F0BD81074605F103091E
:105638002378002B40F05C81B9F8002099F80230FB
:10564800ADF804208DF8063003223346192001A94D
:1056580012F0DEFF68BB9DF80430E27903F07F03A7
:1056680043EAC213A27923F06003520102F06002F8
:1056780013438DF804306379E2781B0103F030039B
:1056880043EA8213A278192002F00F0213438DF81F
:10569800053023799DF806209B0022F00C0203F0C8
:1056A8000C0313438DF806300322334601A912F088
:1056B8007FFF0123257A2278012A35D13346022239
:1056C800572001A9ADF8047012F0A2FF50BBA278D0
:1056D8009DF80430D20002F0180203F0E0031343EF
:1056E800E278572002F007021343A2798DF80430BC
:1056F8009DF80530120102F0300203F0C303134392
:10570800627901A9920002F00C021343227923F076
:10571800030302F0030213438DF8053002223346D7
:1057280012F046FF0923E5792278022A16D1217959
:105738006379E07803F00F03090143EA401301F0AD
:105748001001A5780B438DF805305520334601A983
:105758008DF8045012F02CFF0823A5792278032A2B
:1057680044D1E37AA17903F0030343EA4113E179D1
:10577800A27A090101F010010B43910001F00C011C
:105788000B438DF80430237A617A5B0001F0010144
:1057980003F002030B438DF80530A37802978DF8C8
:1057A8000630A388CDF80B70190A8DF807108DF80C
:1057B8000830002A40F0A180A3890B228DF8093017
:1057C8001B0A8DF80A30E3898DF80B301B0A8DF817
:1057D8000C30238A8DF80D301B0A8DF80E303346B5
:1057E8003F2001A912F0E4FE0523A57C2278042AB3
:1057F80043D1E37AA17903F0030343EA4113E17942
:10580800A27A090101F010010B43910001F00C018B
:105818000B438DF80430237A617A5B0001F00101B3
:1058280003F002030B438DF80530A37802978DF837
:105838000630A388CDF80B70190A8DF807108DF87B
:105848000830002A5ED1A3890B228DF809301B0A83
:105858008DF80A30E3898DF80B301B0A8DF80C306F
:10586800238A8DF80D301B0A8DF80E3033464A20F6
:1058780001A912F09DFE0423A57C2278052A49D1AE
:105888002179E3788A001B0102F00C0203F010036F
:105898001343A278029743EA42138DF804306379E0
:1058A800ADF80C708DF80530A3798DF80630E379E2
:1058B8008DF8073049BB23890A22ADF8083063897F
:1058C80001A9ADF80A30A389ADF80C30334635206C
:1058D80012F06EFE2378A57B062B1DD0002867D119
:1058E800012D40F0EC809DF8003043F002033DE0CC
:1058F80000256FF003002B46DDE6334605226FE7EF
:1059080068F7010033460522B1E7042233460DEB60
:105918000201DCE7062A08D1A378012B40F0428176
:105928009DF8023043F0010308E1002840D1013B13
:10593800082B33D801A252F823F000BF69590000A0
:10594800CD5900000B5A0000495A0000875A000040
:10595800E9580000F95A0000395B0000755B000047
:10596800012D06D19DF8003063F07F038DF80030DB
:1059780014E0022D06D19DF8013063F07F038DF805
:1059880001300BE045B9BDF8003023F4004323F0A3
:105998008003ADF8003001E0032D0CD01434A0458D
:1059A8007FF446AE334603226946212012F000FEFA
:1059B80005B0BDE8F083BDF8003043F4004343F080
:1059C8008003E6E7012D04D19DF8003043F0400341
:1059D800CCE7022D04D19DF8013043F04003CEE717
:1059E80035B9BDF8003023F4804323F04003D0E7F5
:1059F800032DD3D1BDF8003043F4804343F0400376
:105A0800C7E7012D04D19DF8003043F02003ADE72E
:105A1800022D04D19DF8013043F02003AFE735B9DA
:105A2800BDF8003023F4005323F02003B1E7032D21
:105A3800B4D1BDF8003043F4005343F02003A8E785
:105A4800012D04D19DF8003043F008038EE7022DA4
:105A580004D19DF8013043F0080390E735B9BDF84B
:105A6800003023F4006323F0080392E7032D95D157
:105A7800BDF8003043F4006343F0080389E7012DC3
:105A880004D19DF8003043F004036FE7022D04D1E0
:105A98009DF8013043F0040371E735B9BDF80030D3
:105AA80023F4806323F0040373E7032D7FF476AFB8
:105AB800BDF8003043F4806343F0040369E7022D26
:105AC80004D19DF8013043F0020358E735B9BDF819
